:100000000C9472000C949A000C949A000C949A0030
:100010000C949A000C949A000C949A000C949A00F8
:100020000C949A000C949A000C949A000C949A00E8
:100030000C949A000C949A000C949A000C949A00D8
:100040000C942C070C949A000C949A000C949A002F
:100050000C949A000C949A000C949A000C949A00B8
:100060000C9476070C949A00005EBCE2613FDD833D
:10007000C29C7E20A3FD1F41009D23BE46DB65F888
:100080008C11AF32CA57E974000000002400270029
:100090002A0000000000250028002B0000000008B6
:1000A000000201000003040700000000000000003F
:1000B00000000000230026002900040404040404B6
:1000C0000404020202020202030303030303010207
:1000D00004081020408001020408102001020408D6
:1000E0001020DA0811241FBECFEFD8E0DEBFCDBF4D
:1000F00011E0A0E0B1E0E8EAFDE102C005900D9258
:10010000AE34B107D9F722E0AEE4B1E001C01D92F0
:10011000A635B207E1F710E0C2E7D0E004C02197AE
:10012000FE010E94CC0EC137D107C9F70E944309D6
:100130000C94D20E0C94000090E0FC01E456FF4FAA
:100140002491FC01E253FF4F3491FC01E654FF4F30
:10015000E491EE23C9F0222339F0233001F1A8F411
:10016000213019F1223029F1F0E0EE0FFF1FEE5699
:10017000FF4FA591B4918FB7F894EC91611126C00F
:1001800030953E233C938FBF08952730A9F0283047
:10019000C9F0243049F7809180008F7D03C08091A1
:1001A00080008F7780938000DFCF84B58F7784BD08
:1001B000DBCF84B58F7DFBCF8091B0008F778093AC
:1001C000B000D2CF8091B0008F7DF9CF3E2BDACF37
:1001D000CF93DF9390E0FC01E253FF4F24918654CC
:1001E0009F4FFC0184918823D1F090E0880F991FE4
:1001F000FC01E857FF4FA591B491FC01EE56FF4F6B
:10020000C591D49161110EC09FB7F8948C91E22FE3
:10021000E0958E238C932881E223E8839FBFDF91B2
:10022000CF9108958FB7F894EC91E22BEC938FBFA8
:10023000F6CF3FB7F8948091150290911602A091E5
:100240001702B091180226B5A89B05C02F3F19F0E0
:100250000196A11DB11D3FBFBA2FA92F982F882746
:10026000BC01CD01620F711D811D911D42E0660F21
:10027000771F881F991F4A95D1F708958F929F92F3
:10028000AF92BF92CF92DF92EF92FF926B017C010F
:100290000E9419014B015C01C114D104E104F10475
:1002A000B9F00E941901681979098A099B09683E09
:1002B00073408105910580F321E0C21AD108E1085D
:1002C000F10888EE880E83E0981EA11CB11CE4CFD3
:1002D000FF90EF90DF90CF90BF90AF909F908F9066
:1002E000089508950895AF92BF92CF92DF92EF9252
:1002F000FF920F931F93CF93DF936C017B018B01D0
:10030000040F151FEB015E01AE18BF08C017D1071F
:1003100059F06991D601ED91FC910190F081E02DA9
:10032000C6010995892B79F7C501DF91CF911F91FE
:100330000F91FF90EF90DF90CF90BF90AF90089516
:10034000DC0180E0615090F09D919827E92FEF70DB
:10035000F0E0E859FF4F2491E92FE295EF70F0E0CB
:10036000E858FF4FE491822F8E27ECCF0895DC01EF
:100370002C911196ED91FC91F8948181822B8183CF
:100380009281322F30959323928387E090E00197FA
:10039000F1F781818323818383E290E00197F1F774
:1003A00090817894EFECF0E03197F1F7922381E0BF
:1003B00009F480E00895FC0190810180F281E02D34
:1003C000292F209560FF14C0F894828182238283B4
:1003D0008181892B8183A3E2B0E01197F1F78281BB
:1003E000982B9283789487ED90E00197F1F7089528
:1003F000F8948281822382838181892B8183AFEF6C
:10040000B0E01197F1F78281982B928378948FE076
:1004100090E0EBCFDF92EF92FF920F931F93CF9379
:10042000DF93EC01D62EE42E08E010E0FF24F394D5
:1004300061E08D2D8F2109F460E0CE010E94DB0187
:10044000FF0C01501109A1F7E11010C0F894E981E7
:10045000FA8191818881809589238183E981FA815C
:10046000928188818095892382837894DF91CF91CE
:100470001F910F91FF90EF90DF900895EF92FF9200
:100480000F931F93CF93DF938C017B0140E065E5D1
:100490000E940A02E70188E0E80EF11C699140E041
:1004A000C8010E940A02CE15DF05C1F7DF91CF9186
:1004B0001F910F91FF90EF900895FC0190810180B2
:1004C000F281E02DF8948181292F20958223818368
:1004D00078943DE743E050E0315029F1DA0111977B
:1004E000F1F780818923C1F3F8948281822382838A
:1004F0008181892B81837894ABE7B7E01197F1F77D
:10050000F894818182238183A3E1B1E01197F1F70F
:100510008081982381E009F080E07894E3E6F6E0BA
:100520003197F1F7089580E008956F927F928F924E
:100530009F92AF92BF92CF92DF92EF92FF920F9372
:100540001F93CF93DF938C01EB0180912E0290914A
:100550002F020E945D02882309F43FC0B8018091F8
:100560002E0290912F020E943E0240E06EEB80919D
:100570002E0290912F020E940A027E016E0189E0F4
:10058000C80ED11C8E01A0902E02B0902F0288E0E0
:10059000882E912C712C66246394C5010E94B701AA
:1005A00081117628660CE1E08E1A9108B1F7F80106
:1005B00071928F01CE16DF0631F780912E02909155
:1005C0002F020E945D02813041F4F70181917F0189
:1005D000811105C0E017F107C1F790E008C068E09D
:1005E000CE010E94A00191E028852813F6CF892F23
:1005F000DF91CF911F910F91FF90EF90DF90CF90FF
:10060000BF90AF909F908F907F906F9008952091B2
:10061000B601260F3327331F21323105ECF4209128
:10062000DA01FC0190E080E0243069F082E0089576
:10063000A091B6012191AC014A565E4FA40FB52F8F
:10064000B11D2C930196861798F38091B601680F1F
:100650006093B60180E0089581E008951092DA0178
:1006600081E08093DC011092DB0161E082E10E9475
:100670009C0061E083E10E949C00E9EBF0E0808156
:100680008E7F808380818D7F808388E48093B80013
:1006900085E48093BC000895CF93DF9391E090931D
:1006A00095018823B9F0C091B800D091BA0080912B
:1006B000BC008A7B8093BC0060E082E10E949C00C9
:1006C00060E083E10E949C000E942E03D093BA0058
:1006D000C093B800DF91CF9108950895E09107028B
:1006E00080910602E81730F4F0E0E059FE4F808177
:1006F00090E008958FEF9FEF089590910702809109
:1007000006022FEF3FEF981748F4E92FF0E0E05989
:10071000FE4F208130E09F5F90930702C90108954A
:100720008091060290910702891B990B0895CF9240
:10073000DF92EF92FF920F931F93CF93DF937C0191
:10074000CB018A0120916F01222389F0EB016B011B
:10075000C40ED51ECC15DD0569F06991D701ED9168
:10076000FC910190F081E02DC7010995F3CF642F32
:100770000E940703C801DF91CF911F910F91FF9055
:10078000EF90DF90CF900895CF93DF931F92CDB776
:10079000DEB7698320916F012223F9F020910402D2
:1007A000203258F021E030E0FC013383228390E0D6
:1007B00080E00F90DF91CF91089580910502E82F9E
:1007C000F0E0E15BFE4F998190838F5F809305029B
:1007D0008093040281E090E0ECCF61E0CE010196CD
:1007E0000E940703F7CFCF92DF92EF92FF920F9311
:1007F0001F93CF93DF93FC01C48121E020936F010D
:10080000C0934E0110920502109204028385682B5A
:1008100089E192E00E94C403D0910402D13208F031
:1008200092C00E9419016B017C018091DA01811153
:1008300065C082E08093DA0181E08093DC018FEF74
:100840008093D9011092FE01D093FD01AFE4B1E095
:10085000EDEDF1E080E0D81385C01092FF018091AA
:10086000FF01CC0FC82BC093FF018091DB018130C9
:1008700009F07CC01092DB010E9419016B017C0120
:100880008091FF018093BB00809191019091920132
:10089000A0919301B0919401892B8A2B8B2B99F015
:1008A0000E941901009191011091920120919301F0
:1008B000309194016C197D098E099F09061717075D
:1008C00028073907E0F18091BC0083FDD9CF85EC82
:1008D0008093BC000E9419016B017C018091DA01B8
:1008E000823009F445C08091D9018F3F61F1809138
:1008F000D901803241F18091D90125C080919101C7
:1009000090919201A0919301B0919401892B8A2B2F
:100910008B2B09F48ACF0E9419010091910110914B
:10092000920120919301309194016C197D098E09F7
:100930009F09061717072807390708F076CF809117
:1009400090010E944C031092050210920402109232
:100950006F01DF91CF911F910F91FF90EF90DF908A
:10096000CF9008959D9191938F5F75CF85EEB0CF15
:100970008091910190919201A0919301B091940185
:10098000892B8A2B8B2B09F4A9CF0E941901009186
:1009900091011091920120919301309194016C1971
:1009A0007D098E099F09061717072807390708F0E0
:1009B00095CFC5CF089590E080E00895BF92CF9283
:1009C000DF92EF92FF920F931F93CF93DF93EC018F
:1009D000B62EC72E8D85811105C0CE010E945D0205
:1009E00081110EC01B861D861C8680E0DF91CF9191
:1009F0001F910F91FF90EF90DF90CF90BF900895DF
:100A000040E060EFCE010E940A0201E0E12CD12C0F
:100A100011E0CE010E94B701F82ECE010E94B7016D
:100A200091E0F91218C0813099F51134D8F2DB86C3
:100A3000D11002C081E08D878B81882399F22396A3
:100A4000EB2DFC2DCF01089629912193E817F9078A
:100A5000D9F781E0CBCFEE2DF0E0F8120FC08B85F7
:100A60001817A0F4DE01AE0FBF1F13968C918023E0
:100A700079F4F12C193008F41C87D12EEC0FFD1FEE
:100A80008381902F9095892383830AC08113F1CFAE
:100A9000FE01EE0DF11D8381802B8383FF24F394EF
:100AA0006F2DCE010E94DB011F5F000F11F4E39454
:100AB00001E087E08E1508F0ACCFB7CF0F931F93FE
:100AC000CF938C01C62F0E94F3036C2F6460C80182
:100AD0000E94F3036C2F6B7FC8010E94F30383EC29
:100AE00090E00197F1F7CF911F910F9108950F9327
:100AF0001F93CF93DF938C01D62FC42F607F642B7D
:100B00000E945E0580E1D89FB00111246C2BC801C2
:100B1000DF91CF911F910F910C945E0541E00E94EF
:100B2000770581E090E00895CF93DF93CDB7DEB7EE
:100B300028970FB6F894DEBF0FBECDBF98E0E0E077
:100B4000F1E0DE01119601900D929A95E1F79091F6
:100B50005202981708F48FEF90E0880F991F21E058
:100B600030E02C0F3D1F820F931FFC0160816068F5
:100B700040E08AE492E028960FB6F894DEBF0FBEFC
:100B8000CDBFDF91CF910C947705FC01019000203F
:100B9000E9F73197AF01481B590BBC018AE492E099
:100BA0000C9473018F929F92AF92BF920F931F93F9
:100BB000CF93DF93CDB7DEB7A1970FB6F894DEBF22
:100BC0000FBECDBF19A2423008F44AE08E010F5D7E
:100BD0001F4F842E912CB12CA12CA50194010E94B1
:100BE000960EE62FB901CA01EA30F4F4E05DD801AF
:100BF000EE938D01232B242B252B79F790E080E0B9
:100C0000109719F0CD010E94C505A1960FB6F89472
:100C1000DEBF0FBECDBFDF91CF911F910F91BF906F
:100C2000AF909F908F900895E95CE1CF4F925F92D3
:100C30006F927F928F929F92AF92BF92CF92DF92EC
:100C4000EF92FF920F931F93CF936B017C01742E51
:100C5000AC019B010E947D0E882399F08CE291E00B
:100C6000CF911F910F91FF90EF90DF90CF90BF90A9
:100C7000AF909F908F907F906F905F904F900C946B
:100C8000C50546015701E894B7F82FEF3FEF4FE74E
:100C90005FE7C501B4010E947D0E81110DC02FEFE9
:100CA0003FEF4FE75FE7C501B4010E94B30C181690
:100CB0001CF480E391E0D4CF2FEF3FEF4FE75FE4E8
:100CC000C701B6010E940B0E18161CF484E391E0D4
:100CD000C7CF2FEF3FEF4FE75FECC701B6010E9490
:100CE000B30C87FDF3CF20E030E0A901C701B601C6
:100CF0000E94B30C10E000E087FF0CC041E06DE201
:100D00008AE492E00E947705F7FAF094F7F8F094FD
:100D100001E010E0C0E060E070E080E09FE37C165E
:100D200041F020E030E040E251E40E94B80CCF5F97
:100D3000F6CFA70196010E94470C4B015C010E946F
:100D40002A0D2B013C014AE00E94D205080F191F11
:100D5000CC23C9F1C301B2010E94590D9B01AC0122
:100D6000C501B4010E94460C4B015C0141E06EE2FA
:100D70008AE492E00E9477050F5F1F4FC15018F17F
:100D800020E030E040E251E4C501B4010E94100EC1
:100D90002B013C010E942A0D4B01B12CA12C4AE0F1
:100DA000C501B4010E94D205080F191FC501B40185
:100DB0000E94590D9B01AC01C301B2010E94460C77
:100DC0004B015C01DBCFC801CF911F910F91FF90C8
:100DD000EF90DF90CF90BF90AF909F908F907F90DB
:100DE0006F905F904F90089585ED8093BC00809147
:100DF000910190919201A0919301B0919401079675
:100E0000A11DB11D23E0B695A795979587952A95C5
:100E1000D1F72091BC0024FD03C01092DA0108959F
:100E200040919101509192016091930170919401D0
:100E3000452B462B472B69F30097A105B10541F0DF
:100E40002AE22A95F1F700C00197A109B109E1CF83
:100E5000809190010C944C031F920F920FB60F9249
:100E600011242F933F938F939F93AF93BF938091C0
:100E7000110290911202A0911302B09114023091CC
:100E8000100223E0230F2D3758F50196A11DB11D47
:100E9000209310028093110290931202A0931302E8
:100EA000B09314028091150290911602A09117023E
:100EB000B09118020196A11DB11D80931502909367
:100EC0001602A0931702B0931802BF91AF919F91A1
:100ED0008F913F912F910F900FBE0F901F901895FB
:100EE00026E8230F0296A11DB11DD2CF1F920F92AB
:100EF0000FB60F9211242F933F934F935F936F93ED
:100F00007F938F939F93AF93BF93EF93FF938091C2
:100F1000B900887F803609F44AC0F0F5883209F4B8
:100F2000A7C018F5803109F49BC0B8F4882309F4F0
:100F3000F9C0883009F494C0FF91EF91BF91AF914F
:100F40009F918F917F916F915F914F913F912F91E1
:100F50000F900FBE0F901F901895883109F488C02C
:100F6000803251F78093D90114C0803409F49DC0B8
:100F700040F48033B9F38833F9F68093D90185ECD6
:100F8000B0C0803509F485C0883509F496C088342E
:100F900099F60E94F406D0CF883909F48CC038F550
:100FA000883729F050F4883611F0803729F683E02D
:100FB0008093DA011092D80157C0883809F47BC0B9
:100FC000803919F0803809F0B7CF8091D80180328C
:100FD00008F071C0E091D80181E08E0F8093D801B4
:100FE0008091BB00F0E0E854FE4F80833DC0803B21
:100FF00039F0E0F4803A09F479C0883A09F09CCFDE
:1010000084E08093DA011092B7011092B601E0916A
:101010000202F091030209958091B60181110FC07F
:1010200081E08093B6011092960109C0803C09F4DA
:10103000A6CF883C09F4A3CF883B09F07DCFE0918F
:10104000B70181E08E0F8093B701F0E0EA56FE4FC2
:1010500080818093BB009091B7018091B60129C037
:101060008091FF018093BB0085EC8093BC0064CF2E
:101070009091FE018091FD01981758F5E091FE01D5
:1010800081E08E0F8093FE01F0E0E352FE4F8081FD
:10109000E9CFE091FE0181E08E0F8093FE01809107
:1010A000BB00F0E0E352FE4F80839091FE018091FF
:1010B000FD019817C8F285E8D8CFE091FE0181E0E4
:1010C0008E0F8093FE018091BB00F0E0E352FE4F53
:1010D00080838091DC0181115CCF81E08093DB0112
:1010E00084EA8093BC001092DA0126CF85EC8093CD
:1010F000BC001092DA018091D801803230F4E09186
:10110000D801F0E0E854FE4F10826091D80170E001
:10111000E0910002F091010288EB91E009951092B4
:10112000D8010ACF1092D90134CFCF92DF92EF923B
:10113000FF920F931F93E82FF92F05C0015011095B
:101140002109310961F1908196239417B9F305C003
:10115000015011092109310911F19081962394134D
:10116000F7CFC12CD12CE12CF12C0AC08FEFC81A7B
:10117000D80AE80AF80A0C151D052E053F0579F076
:1011800080818623841791F36C2D7D2D8E2D9F2DCC
:101190001F910F91FF90EF90DF90CF90089560E046
:1011A00070E080E090E01F910F91FF90EF90DF9052
:1011B000CF900895E9E1F2E01382128288EE93E085
:1011C000A0E0B0E084839583A683B78382E191E0B9
:1011D00091838083EAE4F2E01382128284E291E058
:1011E0009183808387E2848380E1818782E08287A4
:1011F000138660E089E00E94E800E7EDF0E0E4910A
:10120000ACE3B2E0EC93E3ECF0E0E491F0E0EE0F5D
:10121000FF1FE055FF4F8591949112969C938E93FA
:1012200011971B961C921B971D961C921D971C963E
:101230001C921C971A961C921A9719961C92199731
:1012400018961C92189717961C92179716961C9230
:10125000169715961C92159714961C921497139630
:101260001C921397E5E2F2E0168A158A1182B28782
:10127000A18717821086108289E0838381E08483AE
:10128000858386830895CF93DF93CDB7DEB76197CB
:101290000FB6F894DEBF0FBECDBF789484B58260E0
:1012A00084BD84B5816084BD85B5826085BD85B50A
:1012B000816085BD80916E00816080936E00109288
:1012C0008100809181008260809381008091810003
:1012D0008160809381008091800081608093800094
:1012E0008091B10084608093B1008091B0008160F2
:1012F0008093B00080917A00846080937A0080911E
:101300007A00826080937A0080917A008160809375
:101310007A0080917A00806880937A001092C100F0
:101320001092070210920602109205021092040217
:101330000E942E0381E791E09093030280930202C2
:1013400082E791E0909301028093000210924F0295
:1013500080915402823018F098E090934F0280936D
:10136000520262E370E080E090E00E943E016091F2
:1013700055028AE492E00E94F30368EE73E080E095
:1013800090E00E943E0160E38AE492E00E945E05E4
:101390000BE416E4C8010197F1F760E38AE492E0F8
:1013A0000E945E05C8010197F1F760E38AE492E0CC
:1013B0000E945E0583E592E00197F1F760E28AE41E
:1013C00092E00E945E0560914F02606240E08AE414
:1013D00092E00E94770584E08093500240E06CE048
:1013E0008AE492E00E94770540E061E08AE492E0BE
:1013F0000E9477050BE31FE1C8010197F1F782E036
:101400008093510240E066E08AE492E00E94770512
:1014100040E062E08AE492E00E947705C80101970B
:10142000F1F788E08093550260E08AE492E00E9440
:10143000F30361E08DE00E94E80060E08CE00E9430
:10144000E800E0912E02F0912F0213861586148693
:1014500012861186108617821682158214821382D4
:1014600010922C0210922D0211E0BE01665F7F4F98
:1014700080912E0290912F020E94DE04882309F4AD
:1014800075C067E0CE010A960E94A0019989891370
:10149000ECCF80912C028F5F80932C028A8588325A
:1014A00031F008F049C0803111F08232F1F68091BC
:1014B0002D028F5F80932D0280912502811128C01B
:1014C00080912E0290912F020E945D02BE01665F04
:1014D0007F4F80912E0290912F020E943E0240E0A9
:1014E00064EB80912E0290912F020E940A0280915B
:1014F0002E0290912F020E94B701082F80912E0298
:1015000090912F020E945D02011102C010932502EA
:101510008A858031E1F0BE016F5F7F4FCE010A9670
:101520000E949502882331F08D818F33D9F058F4D1
:101530008F31D1F080E00EC08B3309F4B8CF823404
:1015400009F093CFB4CF8F3521F08F3799F78CE026
:1015500001C08BE090912802981708F086CF809305
:10156000280283CF8AE0F6CF89E0F4CF13E0E12EA2
:10157000F12C03E2C02ED12C8AED282E80E0382EEB
:1015800096ECA92E90E0B92E20E0822E20E0922E3B
:1015900060E08DE00E949C00C7010197F1F761E0D7
:1015A0008DE00E949C00C6010197F1F760E08DE09C
:1015B0000E949C00F1016491F5018491E82FF0E014
:1015C000EE0FFF1FE055FF4F8591949100E412E468
:1015D0002FE030E0462F0E949508611571058105C6
:1015E000910529F06F5F7F4F8F4F9F4F9F700E9433
:1015F0005B0D26E933E44BE05DE30E94100E20E032
:1016000030E040E05FE30E94100E60930C027093A4
:101610000D0280930E0290930F0280912E02909102
:101620002F020E945D0240E06CEC80912E029091AE
:101630002F020E940A024091250264E480912E024A
:1016400090912F020E940A0280912902882391F131
:10165000E091280280912A02882309F497C08091A2
:101660002502811193C08FB7F894409011025090D9
:10167000120260901302709014028FBF80912E02AC
:1016800090912F020E94B7018130A1F02FB7F894FA
:101690008091110290911202A0911302B091140254
:1016A0002FBF84199509A609B7098E3E9240A1055E
:1016B000B10520F3E0912E02F0912F0213861586DA
:1016C000148612861186108617821682158214825D
:1016D000138210E0BE01665F7F4F80912E029091D1
:1016E0002F020E94DE04811179C060E070E08EEF6D
:1016F00092EC609308027093090280930A0290931F
:101700000B0268EE73E080E090E00E943E0180E012
:101710000E94940588E391E00E94C50560910C0247
:1017200070910D0280910E0290910F0242E00E9492
:10173000160682E491E00E94C50581E00E949405AE
:1017400085E491E00E94C50560910802709109024C
:1017500080910A0290910B0242E00E94160641E03D
:101760006FED8AE492E00E9477058CE491E00E949C
:10177000C50568EE73E080E090E00E943E018114B0
:10178000910409F405CF0E94000002CFE9508EEECB
:1017900092E0E33038F4F0E0EE0FFF1FE85FFE4F19
:1017A000808191812C01990F66087708809126022B
:1017B000882329F060E0809127020E949C00C301E9
:1017C000B2010E943E0180912602882309F472CF63
:1017D00061E0809127020E949C006CCF123029F0BA
:1017E0001F5F133009F076CF80CF67E0CE010A96F5
:1017F0000E94A00199898913F3CFBE016F5F7F4FCB
:10180000CE010A960E949502882309F46ECF6A8160
:1018100070E0762F6627770F770F770F298148E0E2
:10182000249F90011124262B372B8A858031E1F4E7
:1018300068856623C9F070E08F81FB01E81BF10920
:10184000CF019695982F8827979587950E94820EAD
:10185000CB018097B90153E0660F771F5A95E1F7E6
:1018600060789C01260F371F2138F4EE3F070CF4F7
:101870003CCFB901330F880B990B0E945B0D20E020
:1018800030E040E05CE30E94100E33CF5058BB279D
:10189000AA270E945E0C0C94D10D0E94C30D38F053
:1018A0000E94CA0D20F039F49F3F19F426F40C94DD
:1018B000C00D0EF4E095E7FB0C94BA0DE92F0E94E1
:1018C000E20D58F3BA17620773078407950720F0F3
:1018D00079F4A6F50C94040E0EF4E0950B2EBA2FB5
:1018E000A02D0B01B90190010C01CA01A001112426
:1018F000FF27591B99F0593F50F4503E68F11A16D2
:10190000F040A22F232F342F4427585FF3CF469562
:1019100037952795A795F0405395C9F77EF41F1684
:10192000BA0B620B730B840BBAF09150A1F0FF0F4E
:10193000BB1F661F771F881FC2F70EC0BA0F621F3A
:10194000731F841F48F4879577956795B795F7952A
:101950009E3F08F0B0CF9395880F08F09927EE0FBF
:101960009795879508950E94960D08F481E0089553
:101970000E94CC0C0C94D10D0E94CA0D58F00E940C
:10198000C30D40F029F45F3F29F00C94BA0D5111BA
:101990000C94050E0C94C00D0E94E20D68F399237F
:1019A000B1F3552391F3951B550BBB27AA2762175B
:1019B0007307840738F09F5F5F4F220F331F441F68
:1019C000AA1FA9F335D00E2E3AF0E0E832D091509C
:1019D0005040E695001CCAF72BD0FE2F29D0660F89
:1019E000771F881FBB1F261737074807AB07B0E8CC
:1019F00009F0BB0B802DBF01FF2793585F4F3AF0D2
:101A00009E3F510578F00C94BA0D0C94050E5F3F83
:101A1000E4F3983ED4F3869577956795B795F79557
:101A20009F5FC9F7880F911D9695879597F908953F
:101A3000E1E0660F771F881FBB1F621773078407DB
:101A4000BA0720F0621B730B840BBA0BEE1F88F7EA
:101A5000E09508950E94EA0D88F09F5798F0B92FFD
:101A60009927B751B0F0E1F0660F771F881F991FD3
:101A70001AF0BA95C9F714C0B13091F00E94040E63
:101A8000B1E008950C94040E672F782F8827B85F73
:101A900039F0B93FCCF3869577956795B395D9F72B
:101AA0003EF490958095709561957F4F8F4F9F4F35
:101AB0000895E89409C097FB3EF490958095709541
:101AC00061957F4F8F4F9F4F9923A9F0F92F96E98A
:101AD000BB279395F695879577956795B795F111FF
:101AE000F8CFFAF4BB0F11F460FF1BC06F5F7F4F9C
:101AF0008F4F9F4F16C0882311F096E911C07723AE
:101B000021F09EE8872F762F05C0662371F096E8B6
:101B1000862F70E060E02AF09A95660F771F881F85
:101B2000DAF7880F9695879597F90895990F000829
:101B3000550FAA0BE0E8FEEF16161706E807F9079F
:101B4000C0F012161306E407F50798F0621B730B3A
:101B5000840B950B39F40A2661F0232B242B252BBB
:101B600021F408950A2609F4A140A6958FEF811D5E
:101B7000811D089597F99F6780E870E060E00895FF
:101B80009FEF80EC089500240A9416161706180695
:101B90000906089500240A94121613061406050671
:101BA0000895092E0394000C11F4882352F0BB0F02
:101BB00040F4BF2B11F460FF04C06F5F7F4F8F4F65
:101BC0009F4F089557FD9058440F551F59F05F3FA0
:101BD00071F04795880F97FB991F61F09F3F79F04F
:101BE00087950895121613061406551FF2CF4695D1
:101BF000F1DF08C0161617061806991FF1CF869553
:101C00007105610508940895E894BB276627772736
:101C1000CB0197F908950E94960D08F48FEF08956F
:101C20000E94230E0C94D10D0E94C30D38F00E9427
:101C3000CA0D20F0952311F00C94BA0D0C94C00D30
:101C400011240C94050E0E94E20D70F3959FC1F3D0
:101C5000950F50E0551F629FF001729FBB27F00D5A
:101C6000B11D639FAA27F00DB11DAA1F649F6627AF
:101C7000B00DA11D661F829F2227B00DA11D621FFE
:101C8000739FB00DA11D621F839FA00D611D221FB8
:101C9000749F3327A00D611D231F849F600D211D9C
:101CA000822F762F6A2F11249F5750409AF0F1F01F
:101CB00088234AF0EE0FFF1FBB1F661F771F881F88
:101CC00091505040A9F79E3F510580F00C94BA0DF9
:101CD0000C94050E5F3FE4F3983ED4F38695779518
:101CE0006795B795F795E7959F5FC1F7FE2B880F2E
:101CF000911D9695879597F908950E94960D880BEA
:101D0000990B089597FB072E16F4009407D077FDE2
:101D100009D00E94B80E07FC05D03EF4909581953D
:101D20009F4F0895709561957F4F0895A1E21A2EF7
:101D3000AA1BBB1BFD010DC0AA1FBB1FEE1FFF1F6F
:101D4000A217B307E407F50720F0A21BB30BE40BBF
:101D5000F50B661F771F881F991F1A9469F7609506
:101D60007095809590959B01AC01BD01CF010895C0
:101D7000AA1BBB1B51E107C0AA1FBB1FA617B707B1
:101D800010F0A61BB70B881F991F5A95A9F78095CD
:101D90009095BC01CD010895EE0FFF1F0590F491C1
:081DA000E02D0994F894FFCF37
:101DA80000004000140054005E00BC0077010000F1
:101DB8000000C4039703DB046D0390037D036E03E7
:101DC800000000008E057301DB04DA046E616E000A
:101DD800696E66006F76660044697374616E636548
:0E1DE8003A00636D0054656D703A20004300B0
:00000001FF
